{
  "contractName": "VotingSystem",
  "abi": [
    {
      "inputs": [],
      "stateMutability": "nonpayable",
      "type": "constructor"
    },
    {
      "inputs": [
        {
          "internalType": "uint256",
          "name": "",
          "type": "uint256"
        }
      ],
      "name": "elections",
      "outputs": [
        {
          "internalType": "string",
          "name": "name",
          "type": "string"
        },
        {
          "internalType": "bool",
          "name": "isActive",
          "type": "bool"
        }
      ],
      "stateMutability": "view",
      "type": "function",
      "constant": true
    },
    {
      "inputs": [],
      "name": "owner",
      "outputs": [
        {
          "internalType": "address",
          "name": "",
          "type": "address"
        }
      ],
      "stateMutability": "view",
      "type": "function",
      "constant": true
    },
    {
      "inputs": [
        {
          "internalType": "string",
          "name": "_name",
          "type": "string"
        },
        {
          "internalType": "string[]",
          "name": "_candidates",
          "type": "string[]"
        }
      ],
      "name": "createElection",
      "outputs": [],
      "stateMutability": "nonpayable",
      "type": "function"
    },
    {
      "inputs": [
        {
          "internalType": "uint256",
          "name": "_electionId",
          "type": "uint256"
        },
        {
          "internalType": "uint256",
          "name": "_candidateId",
          "type": "uint256"
        }
      ],
      "name": "vote",
      "outputs": [],
      "stateMutability": "nonpayable",
      "type": "function"
    },
    {
      "inputs": [
        {
          "internalType": "uint256",
          "name": "_electionId",
          "type": "uint256"
        }
      ],
      "name": "getResults",
      "outputs": [
        {
          "internalType": "string[]",
          "name": "",
          "type": "string[]"
        },
        {
          "internalType": "uint256[]",
          "name": "",
          "type": "uint256[]"
        }
      ],
      "stateMutability": "view",
      "type": "function",
      "constant": true
    },
    {
      "inputs": [
        {
          "internalType": "uint256",
          "name": "_electionId",
          "type": "uint256"
        }
      ],
      "name": "closeElection",
      "outputs": [],
      "stateMutability": "nonpayable",
      "type": "function"
    }
  ],
  "bytecode": "0x608060405234801561001057600080fd5b50336000806101000a81548173ffffffffffffffffffffffffffffffffffffffff021916908373ffffffffffffffffffffffffffffffffffffffff1602179055506115e0806100606000396000f3fe608060405234801561001057600080fd5b50600436106100625760003560e01c806309e33d0714610067578063349813b2146100835780635e6fef011461009f57806381a60c0d146100d05780638da5cb5b14610101578063b384abef1461011f575b600080fd5b610081600480360381019061007c9190610dff565b61013b565b005b61009d60048036038101906100989190610d93565b610279565b005b6100b960048036038101906100b49190610dff565b610431565b6040516100c79291906111d4565b60405180910390f35b6100ea60048036038101906100e59190610dff565b6104fa565b6040516100f892919061119d565b60405180910390f35b6101096108ff565b6040516101169190611182565b60405180910390f35b61013960048036038101906101349190610e28565b610923565b005b60008054906101000a900473ffffffffffffffffffffffffffffffffffffffff1673ffffffffffffffffffffffffffffffffffffffff163373ffffffffffffffffffffffffffffffffffffffff16146101c9576040517f08c379a00000000000000000000000000000000000000000000000000000000081526004016101c0906112a4565b60405180910390fd5b806001805490508110610211576040517f08c379a000000000000000000000000000000000000000000000000000000000815260040161020890611224565b60405180910390fd5b60006001838154811061024d577f4e487b7100000000000000000000000000000000000000000000000000000000600052603260045260246000fd5b906000526020600020906004020160030160006101000a81548160ff0219169083151502179055505050565b60008054906101000a900473ffffffffffffffffffffffffffffffffffffffff1673ffffffffffffffffffffffffffffffffffffffff163373ffffffffffffffffffffffffffffffffffffffff1614610307576040517f08c379a00000000000000000000000000000000000000000000000000000000081526004016102fe906112a4565b60405180910390fd5b600060018081600181540180825580915050039060005260206000209060040201905082816000019080519060200190610342929190610bec565b5060018160030160006101000a81548160ff02191690831515021790555060005b825181101561042b578160010160405180604001604052808584815181106103b4577f4e487b7100000000000000000000000000000000000000000000000000000000600052603260045260246000fd5b6020026020010151815260200160008152509080600181540180825580915050600190039060005260206000209060020201600090919091909150600082015181600001908051906020019061040b929190610bec565b506020820151816001015550508080610423906114ac565b915050610363565b50505050565b6001818154811061044157600080fd5b90600052602060002090600402016000915090508060000180546104649061147a565b80601f01602080910402602001604051908101604052809291908181526020018280546104909061147a565b80156104dd5780601f106104b2576101008083540402835291602001916104dd565b820191906000526020600020905b8154815290600101906020018083116104c057829003601f168201915b5050505050908060030160009054906101000a900460ff16905082565b606080826001805490508110610545576040517f08c379a000000000000000000000000000000000000000000000000000000000815260040161053c90611224565b60405180910390fd5b8360018181548110610580577f4e487b7100000000000000000000000000000000000000000000000000000000600052603260045260246000fd5b906000526020600020906004020160030160009054906101000a900460ff16156105df576040517f08c379a00000000000000000000000000000000000000000000000000000000081526004016105d690611204565b60405180910390fd5b60006001868154811061061b577f4e487b7100000000000000000000000000000000000000000000000000000000600052603260045260246000fd5b9060005260206000209060040201905060008160010180549050905060008167ffffffffffffffff811115610679577f4e487b7100000000000000000000000000000000000000000000000000000000600052604160045260246000fd5b6040519080825280602002602001820160405280156106ac57816020015b60608152602001906001900390816106975790505b50905060008267ffffffffffffffff8111156106f1577f4e487b7100000000000000000000000000000000000000000000000000000000600052604160045260246000fd5b60405190808252806020026020018201604052801561071f5781602001602082028036833780820191505090505b50905060005b838110156108ed57846001018181548110610769577f4e487b7100000000000000000000000000000000000000000000000000000000600052603260045260246000fd5b906000526020600020906002020160000180546107859061147a565b80601f01602080910402602001604051908101604052809291908181526020018280546107b19061147a565b80156107fe5780601f106107d3576101008083540402835291602001916107fe565b820191906000526020600020905b8154815290600101906020018083116107e157829003601f168201915b505050505083828151811061083c577f4e487b7100000000000000000000000000000000000000000000000000000000600052603260045260246000fd5b6020026020010181905250846001018181548110610883577f4e487b7100000000000000000000000000000000000000000000000000000000600052603260045260246000fd5b9060005260206000209060020201600101548282815181106108ce577f4e487b7100000000000000000000000000000000000000000000000000000000600052603260045260246000fd5b60200260200101818152505080806108e5906114ac565b915050610725565b50818197509750505050505050915091565b60008054906101000a900473ffffffffffffffffffffffffffffffffffffffff1681565b81600180549050811061096b576040517f08c379a000000000000000000000000000000000000000000000000000000000815260040161096290611224565b60405180910390fd5b82600181815481106109a6577f4e487b7100000000000000000000000000000000000000000000000000000000600052603260045260246000fd5b906000526020600020906004020160030160009054906101000a900460ff16610a04576040517f08c379a00000000000000000000000000000000000000000000000000000000081526004016109fb90611244565b60405180910390fd5b600060018581548110610a40577f4e487b7100000000000000000000000000000000000000000000000000000000600052603260045260246000fd5b906000526020600020906004020190508060020160003373ffffffffffffffffffffffffffffffffffffffff1673ffffffffffffffffffffffffffffffffffffffff16815260200190815260200160002060009054906101000a900460ff1615610adf576040517f08c379a0000000000000000000000000000000000000000000000000000000008152600401610ad690611284565b60405180910390fd5b80600101805490508410610b28576040517f08c379a0000000000000000000000000000000000000000000000000000000008152600401610b1f90611264565b60405180910390fd5b806001018481548110610b64577f4e487b7100000000000000000000000000000000000000000000000000000000600052603260045260246000fd5b90600052602060002090600202016001016000815480929190610b86906114ac565b919050555060018160020160003373ffffffffffffffffffffffffffffffffffffffff1673ffffffffffffffffffffffffffffffffffffffff16815260200190815260200160002060006101000a81548160ff0219169083151502179055505050505050565b828054610bf89061147a565b90600052602060002090601f016020900481019282610c1a5760008555610c61565b82601f10610c3357805160ff1916838001178555610c61565b82800160010185558215610c61579182015b82811115610c60578251825591602001919060010190610c45565b5b509050610c6e9190610c72565b5090565b5b80821115610c8b576000816000905550600101610c73565b5090565b6000610ca2610c9d846112f5565b6112c4565b9050808382526020820190508260005b85811015610ce25781358501610cc88882610d54565b845260208401935060208301925050600181019050610cb2565b5050509392505050565b6000610cff610cfa84611321565b6112c4565b905082815260208101848484011115610d1757600080fd5b610d22848285611438565b509392505050565b600082601f830112610d3b57600080fd5b8135610d4b848260208601610c8f565b91505092915050565b600082601f830112610d6557600080fd5b8135610d75848260208601610cec565b91505092915050565b600081359050610d8d81611593565b92915050565b60008060408385031215610da657600080fd5b600083013567ffffffffffffffff811115610dc057600080fd5b610dcc85828601610d54565b925050602083013567ffffffffffffffff811115610de957600080fd5b610df585828601610d2a565b9150509250929050565b600060208284031215610e1157600080fd5b6000610e1f84828501610d7e565b91505092915050565b60008060408385031215610e3b57600080fd5b6000610e4985828601610d7e565b9250506020610e5a85828601610d7e565b9150509250929050565b6000610e708383610f81565b905092915050565b6000610e848383611173565b60208301905092915050565b610e99816113f0565b82525050565b6000610eaa82611371565b610eb481856113ac565b935083602082028501610ec685611351565b8060005b85811015610f025784840389528151610ee38582610e64565b9450610eee83611392565b925060208a01995050600181019050610eca565b50829750879550505050505092915050565b6000610f1f8261137c565b610f2981856113bd565b9350610f3483611361565b8060005b83811015610f65578151610f4c8882610e78565b9750610f578361139f565b925050600181019050610f38565b5085935050505092915050565b610f7b81611402565b82525050565b6000610f8c82611387565b610f9681856113ce565b9350610fa6818560208601611447565b610faf81611582565b840191505092915050565b6000610fc582611387565b610fcf81856113df565b9350610fdf818560208601611447565b610fe881611582565b840191505092915050565b60006110006018836113df565b91507f456c656374696f6e206973207374696c6c2061637469766500000000000000006000830152602082019050919050565b60006110406013836113df565b91507f496e76616c696420656c656374696f6e204944000000000000000000000000006000830152602082019050919050565b60006110806016836113df565b91507f456c656374696f6e206973206e6f7420616374697665000000000000000000006000830152602082019050919050565b60006110c06014836113df565b91507f496e76616c69642063616e6469646174652049440000000000000000000000006000830152602082019050919050565b60006111006016836113df565b91507f596f75206861766520616c726561647920766f746564000000000000000000006000830152602082019050919050565b6000611140600e836113df565b91507f4e6f7420617574686f72697a65640000000000000000000000000000000000006000830152602082019050919050565b61117c8161142e565b82525050565b60006020820190506111976000830184610e90565b92915050565b600060408201905081810360008301526111b78185610e9f565b905081810360208301526111cb8184610f14565b90509392505050565b600060408201905081810360008301526111ee8185610fba565b90506111fd6020830184610f72565b9392505050565b6000602082019050818103600083015261121d81610ff3565b9050919050565b6000602082019050818103600083015261123d81611033565b9050919050565b6000602082019050818103600083015261125d81611073565b9050919050565b6000602082019050818103600083015261127d816110b3565b9050919050565b6000602082019050818103600083015261129d816110f3565b9050919050565b600060208201905081810360008301526112bd81611133565b9050919050565b6000604051905081810181811067ffffffffffffffff821117156112eb576112ea611553565b5b8060405250919050565b600067ffffffffffffffff8211156113105761130f611553565b5b602082029050602081019050919050565b600067ffffffffffffffff82111561133c5761133b611553565b5b601f19601f8301169050602081019050919050565b6000819050602082019050919050565b6000819050602082019050919050565b600081519050919050565b600081519050919050565b600081519050919050565b6000602082019050919050565b6000602082019050919050565b600082825260208201905092915050565b600082825260208201905092915050565b600082825260208201905092915050565b600082825260208201905092915050565b60006113fb8261140e565b9050919050565b60008115159050919050565b600073ffffffffffffffffffffffffffffffffffffffff82169050919050565b6000819050919050565b82818337600083830152505050565b60005b8381101561146557808201518184015260208101905061144a565b83811115611474576000848401525b50505050565b6000600282049050600182168061149257607f821691505b602082108114156114a6576114a5611524565b5b50919050565b60006114b78261142e565b91507fffffffffffffffffffffffffffffffffffffffffffffffffffffffffffffffff8214156114ea576114e96114f5565b5b600182019050919050565b7f4e487b7100000000000000000000000000000000000000000000000000000000600052601160045260246000fd5b7f4e487b7100000000000000000000000000000000000000000000000000000000600052602260045260246000fd5b7f4e487b7100000000000000000000000000000000000000000000000000000000600052604160045260246000fd5b6000601f19601f8301169050919050565b61159c8161142e565b81146115a757600080fd5b5056fea2646970667358221220fe75580d9c0deeb3c565447355ee4e92c2abd402581301ec3b30faa48d68c4a064736f6c63430008000033",
  "immutableReferences": {},
  "source": "// SPDX-License-Identifier: MIT\npragma solidity ^0.8.0;\n\ncontract VotingSystem {\n    address public owner;\n\n    struct Candidate {\n        string name;\n        uint voteCount;\n    }\n\n    struct Election {\n        string name;\n        Candidate[] candidates;\n        mapping(address => bool) hasVoted;\n        bool isActive;\n    }\n\n    Election[] public elections;\n\n    modifier onlyOwner() {\n        require(msg.sender == owner, \"Not authorized\");\n        _;\n    }\n\n    modifier onlyValidElection(uint _electionId) {\n        require(_electionId < elections.length, \"Invalid election ID\");\n        _;\n    }\n\n    modifier onlyActiveElection(uint _electionId) {\n        require(elections[_electionId].isActive, \"Election is not active\");\n        _;\n    }\n\n    modifier onlyAfterElection(uint _electionId) {\n        require(!elections[_electionId].isActive, \"Election is still active\");\n        _;\n    }\n\n    constructor() {\n        owner = msg.sender;\n    }\n\n    // Create a new election\n    function createElection(string memory _name, string[] memory _candidates) public onlyOwner {\n        Election storage newElection = elections.push();\n        newElection.name = _name;\n        newElection.isActive = true;\n\n        for (uint i = 0; i < _candidates.length; i++) {\n            newElection.candidates.push(Candidate({ name: _candidates[i], voteCount: 0 }));\n        }\n    }\n\n    // Cast a vote\n    function vote(uint _electionId, uint _candidateId)\n        public\n        onlyValidElection(_electionId)\n        onlyActiveElection(_electionId)\n    {\n        Election storage election = elections[_electionId];\n        require(!election.hasVoted[msg.sender], \"You have already voted\");\n        require(_candidateId < election.candidates.length, \"Invalid candidate ID\");\n\n        election.candidates[_candidateId].voteCount++;\n        election.hasVoted[msg.sender] = true;\n    }\n\n    // Get results of an election\n    function getResults(uint _electionId)\n        public\n        view\n        onlyValidElection(_electionId)\n        onlyAfterElection(_electionId)\n        returns (string[] memory, uint[] memory)\n    {\n        Election storage election = elections[_electionId];\n        uint candidateCount = election.candidates.length;\n\n        string[] memory names = new string[](candidateCount);\n        uint[] memory votes = new uint[](candidateCount);\n\n        for (uint i = 0; i < candidateCount; i++) {\n            names[i] = election.candidates[i].name;\n            votes[i] = election.candidates[i].voteCount;\n        }\n\n        return (names, votes);\n    }\n\n    // Close an election\n    function closeElection(uint _electionId) public onlyOwner onlyValidElection(_electionId) {\n        elections[_electionId].isActive = false;\n    }\n}\n",
  "sourcePath": "D:\\Development\\dovs\\blockchain\\contracts\\VotingSystem.sol",
  "compiler": {
    "name": "solc",
    "version": "0.8.0+commit.c7dfd78e.Emscripten.clang"
  },
  "schemaVersion": "3.4.16",
  "updatedAt": "2025-03-02T06:52:54.369Z",
  "networkType": "ethereum",
  "devdoc": {
    "kind": "dev",
    "methods": {},
    "version": 1
  },
  "userdoc": {
    "kind": "user",
    "methods": {},
    "version": 1
  }
}