{
  "contractName": "VotingSystem",
  "abi": [
    {
      "inputs": [],
      "stateMutability": "nonpayable",
      "type": "constructor"
    },
    {
      "inputs": [],
      "name": "electionCount",
      "outputs": [
        {
          "internalType": "uint256",
          "name": "",
          "type": "uint256"
        }
      ],
      "stateMutability": "view",
      "type": "function",
      "constant": true
    },
    {
      "inputs": [
        {
          "internalType": "uint256",
          "name": "",
          "type": "uint256"
        }
      ],
      "name": "elections",
      "outputs": [
        {
          "internalType": "string",
          "name": "name",
          "type": "string"
        },
        {
          "internalType": "bool",
          "name": "isActive",
          "type": "bool"
        }
      ],
      "stateMutability": "view",
      "type": "function",
      "constant": true
    },
    {
      "inputs": [],
      "name": "owner",
      "outputs": [
        {
          "internalType": "address",
          "name": "",
          "type": "address"
        }
      ],
      "stateMutability": "view",
      "type": "function",
      "constant": true
    },
    {
      "inputs": [
        {
          "internalType": "string",
          "name": "_name",
          "type": "string"
        },
        {
          "internalType": "string[]",
          "name": "_candidates",
          "type": "string[]"
        }
      ],
      "name": "createElection",
      "outputs": [
        {
          "internalType": "uint256",
          "name": "",
          "type": "uint256"
        }
      ],
      "stateMutability": "nonpayable",
      "type": "function"
    },
    {
      "inputs": [
        {
          "internalType": "uint256",
          "name": "_electionId",
          "type": "uint256"
        },
        {
          "internalType": "uint256",
          "name": "_candidateId",
          "type": "uint256"
        }
      ],
      "name": "vote",
      "outputs": [],
      "stateMutability": "nonpayable",
      "type": "function"
    },
    {
      "inputs": [
        {
          "internalType": "uint256",
          "name": "_electionId",
          "type": "uint256"
        }
      ],
      "name": "getResults",
      "outputs": [
        {
          "internalType": "string[]",
          "name": "",
          "type": "string[]"
        },
        {
          "internalType": "uint256[]",
          "name": "",
          "type": "uint256[]"
        }
      ],
      "stateMutability": "view",
      "type": "function",
      "constant": true
    },
    {
      "inputs": [
        {
          "internalType": "uint256",
          "name": "_electionId",
          "type": "uint256"
        }
      ],
      "name": "closeElection",
      "outputs": [],
      "stateMutability": "nonpayable",
      "type": "function"
    }
  ],
  "bytecode": "0x608060405234801561001057600080fd5b50336000806101000a81548173ffffffffffffffffffffffffffffffffffffffff021916908373ffffffffffffffffffffffffffffffffffffffff1602179055506116bf806100606000396000f3fe608060405234801561001057600080fd5b506004361061007d5760003560e01c806381a60c0d1161005b57806381a60c0d146100ff5780638da5cb5b14610130578063997d28301461014e578063b384abef1461016c5761007d565b806309e33d0714610082578063349813b21461009e5780635e6fef01146100ce575b600080fd5b61009c60048036038101906100979190610e80565b610188565b005b6100b860048036038101906100b39190610e14565b6102c6565b6040516100c59190611354565b60405180910390f35b6100e860048036038101906100e39190610e80565b6104ac565b6040516100f6929190611264565b60405180910390f35b61011960048036038101906101149190610e80565b610575565b60405161012792919061122d565b60405180910390f35b61013861097a565b6040516101459190611212565b60405180910390f35b61015661099e565b6040516101639190611354565b60405180910390f35b61018660048036038101906101819190610ea9565b6109a4565b005b60008054906101000a900473ffffffffffffffffffffffffffffffffffffffff1673ffffffffffffffffffffffffffffffffffffffff163373ffffffffffffffffffffffffffffffffffffffff1614610216576040517f08c379a000000000000000000000000000000000000000000000000000000000815260040161020d90611334565b60405180910390fd5b80600180549050811061025e576040517f08c379a0000000000000000000000000000000000000000000000000000000008152600401610255906112b4565b60405180910390fd5b60006001838154811061029a577f4e487b7100000000000000000000000000000000000000000000000000000000600052603260045260246000fd5b906000526020600020906004020160030160006101000a81548160ff0219169083151502179055505050565b60008060009054906101000a900473ffffffffffffffffffffffffffffffffffffffff1673ffffffffffffffffffffffffffffffffffffffff163373ffffffffffffffffffffffffffffffffffffffff1614610357576040517f08c379a000000000000000000000000000000000000000000000000000000000815260040161034e90611334565b60405180910390fd5b600060018081600181540180825580915050039060005260206000209060040201905083816000019080519060200190610392929190610c6d565b5060018160030160006101000a81548160ff02191690831515021790555060005b835181101561047b57816001016040518060400160405280868481518110610404577f4e487b7100000000000000000000000000000000000000000000000000000000600052603260045260246000fd5b6020026020010151815260200160008152509080600181540180825580915050600190039060005260206000209060020201600090919091909150600082015181600001908051906020019061045b929190610c6d565b5060208201518160010155505080806104739061158b565b9150506103b3565b506002600081548092919061048f9061158b565b919050555060016002546104a3919061149b565b91505092915050565b600181815481106104bc57600080fd5b90600052602060002090600402016000915090508060000180546104df90611559565b80601f016020809104026020016040519081016040528092919081815260200182805461050b90611559565b80156105585780601f1061052d57610100808354040283529160200191610558565b820191906000526020600020905b81548152906001019060200180831161053b57829003601f168201915b5050505050908060030160009054906101000a900460ff16905082565b6060808260018054905081106105c0576040517f08c379a00000000000000000000000000000000000000000000000000000000081526004016105b7906112b4565b60405180910390fd5b83600181815481106105fb577f4e487b7100000000000000000000000000000000000000000000000000000000600052603260045260246000fd5b906000526020600020906004020160030160009054906101000a900460ff161561065a576040517f08c379a000000000000000000000000000000000000000000000000000000000815260040161065190611294565b60405180910390fd5b600060018681548110610696577f4e487b7100000000000000000000000000000000000000000000000000000000600052603260045260246000fd5b9060005260206000209060040201905060008160010180549050905060008167ffffffffffffffff8111156106f4577f4e487b7100000000000000000000000000000000000000000000000000000000600052604160045260246000fd5b60405190808252806020026020018201604052801561072757816020015b60608152602001906001900390816107125790505b50905060008267ffffffffffffffff81111561076c577f4e487b7100000000000000000000000000000000000000000000000000000000600052604160045260246000fd5b60405190808252806020026020018201604052801561079a5781602001602082028036833780820191505090505b50905060005b83811015610968578460010181815481106107e4577f4e487b7100000000000000000000000000000000000000000000000000000000600052603260045260246000fd5b9060005260206000209060020201600001805461080090611559565b80601f016020809104026020016040519081016040528092919081815260200182805461082c90611559565b80156108795780601f1061084e57610100808354040283529160200191610879565b820191906000526020600020905b81548152906001019060200180831161085c57829003601f168201915b50505050508382815181106108b7577f4e487b7100000000000000000000000000000000000000000000000000000000600052603260045260246000fd5b60200260200101819052508460010181815481106108fe577f4e487b7100000000000000000000000000000000000000000000000000000000600052603260045260246000fd5b906000526020600020906002020160010154828281518110610949577f4e487b7100000000000000000000000000000000000000000000000000000000600052603260045260246000fd5b60200260200101818152505080806109609061158b565b9150506107a0565b50818197509750505050505050915091565b60008054906101000a900473ffffffffffffffffffffffffffffffffffffffff1681565b60025481565b8160018054905081106109ec576040517f08c379a00000000000000000000000000000000000000000000000000000000081526004016109e3906112b4565b60405180910390fd5b8260018181548110610a27577f4e487b7100000000000000000000000000000000000000000000000000000000600052603260045260246000fd5b906000526020600020906004020160030160009054906101000a900460ff16610a85576040517f08c379a0000000000000000000000000000000000000000000000000000000008152600401610a7c906112d4565b60405180910390fd5b600060018581548110610ac1577f4e487b7100000000000000000000000000000000000000000000000000000000600052603260045260246000fd5b906000526020600020906004020190508060020160003373ffffffffffffffffffffffffffffffffffffffff1673ffffffffffffffffffffffffffffffffffffffff16815260200190815260200160002060009054906101000a900460ff1615610b60576040517f08c379a0000000000000000000000000000000000000000000000000000000008152600401610b5790611314565b60405180910390fd5b80600101805490508410610ba9576040517f08c379a0000000000000000000000000000000000000000000000000000000008152600401610ba0906112f4565b60405180910390fd5b806001018481548110610be5577f4e487b7100000000000000000000000000000000000000000000000000000000600052603260045260246000fd5b90600052602060002090600202016001016000815480929190610c079061158b565b919050555060018160020160003373ffffffffffffffffffffffffffffffffffffffff1673ffffffffffffffffffffffffffffffffffffffff16815260200190815260200160002060006101000a81548160ff0219169083151502179055505050505050565b828054610c7990611559565b90600052602060002090601f016020900481019282610c9b5760008555610ce2565b82601f10610cb457805160ff1916838001178555610ce2565b82800160010185558215610ce2579182015b82811115610ce1578251825591602001919060010190610cc6565b5b509050610cef9190610cf3565b5090565b5b80821115610d0c576000816000905550600101610cf4565b5090565b6000610d23610d1e846113a0565b61136f565b9050808382526020820190508260005b85811015610d635781358501610d498882610dd5565b845260208401935060208301925050600181019050610d33565b5050509392505050565b6000610d80610d7b846113cc565b61136f565b905082815260208101848484011115610d9857600080fd5b610da3848285611517565b509392505050565b600082601f830112610dbc57600080fd5b8135610dcc848260208601610d10565b91505092915050565b600082601f830112610de657600080fd5b8135610df6848260208601610d6d565b91505092915050565b600081359050610e0e81611672565b92915050565b60008060408385031215610e2757600080fd5b600083013567ffffffffffffffff811115610e4157600080fd5b610e4d85828601610dd5565b925050602083013567ffffffffffffffff811115610e6a57600080fd5b610e7685828601610dab565b9150509250929050565b600060208284031215610e9257600080fd5b6000610ea084828501610dff565b91505092915050565b60008060408385031215610ebc57600080fd5b6000610eca85828601610dff565b9250506020610edb85828601610dff565b9150509250929050565b6000610ef18383611002565b905092915050565b6000610f0583836111f4565b60208301905092915050565b610f1a816114cf565b82525050565b6000610f2b8261141c565b610f358185611457565b935083602082028501610f47856113fc565b8060005b85811015610f835784840389528151610f648582610ee5565b9450610f6f8361143d565b925060208a01995050600181019050610f4b565b50829750879550505050505092915050565b6000610fa082611427565b610faa8185611468565b9350610fb58361140c565b8060005b83811015610fe6578151610fcd8882610ef9565b9750610fd88361144a565b925050600181019050610fb9565b5085935050505092915050565b610ffc816114e1565b82525050565b600061100d82611432565b6110178185611479565b9350611027818560208601611526565b61103081611661565b840191505092915050565b600061104682611432565b611050818561148a565b9350611060818560208601611526565b61106981611661565b840191505092915050565b600061108160188361148a565b91507f456c656374696f6e206973207374696c6c2061637469766500000000000000006000830152602082019050919050565b60006110c160138361148a565b91507f496e76616c696420656c656374696f6e204944000000000000000000000000006000830152602082019050919050565b600061110160168361148a565b91507f456c656374696f6e206973206e6f7420616374697665000000000000000000006000830152602082019050919050565b600061114160148361148a565b91507f496e76616c69642063616e6469646174652049440000000000000000000000006000830152602082019050919050565b600061118160168361148a565b91507f596f75206861766520616c726561647920766f746564000000000000000000006000830152602082019050919050565b60006111c1600e8361148a565b91507f4e6f7420617574686f72697a65640000000000000000000000000000000000006000830152602082019050919050565b6111fd8161150d565b82525050565b61120c8161150d565b82525050565b60006020820190506112276000830184610f11565b92915050565b600060408201905081810360008301526112478185610f20565b9050818103602083015261125b8184610f95565b90509392505050565b6000604082019050818103600083015261127e818561103b565b905061128d6020830184610ff3565b9392505050565b600060208201905081810360008301526112ad81611074565b9050919050565b600060208201905081810360008301526112cd816110b4565b9050919050565b600060208201905081810360008301526112ed816110f4565b9050919050565b6000602082019050818103600083015261130d81611134565b9050919050565b6000602082019050818103600083015261132d81611174565b9050919050565b6000602082019050818103600083015261134d816111b4565b9050919050565b60006020820190506113696000830184611203565b92915050565b6000604051905081810181811067ffffffffffffffff8211171561139657611395611632565b5b8060405250919050565b600067ffffffffffffffff8211156113bb576113ba611632565b5b602082029050602081019050919050565b600067ffffffffffffffff8211156113e7576113e6611632565b5b601f19601f8301169050602081019050919050565b6000819050602082019050919050565b6000819050602082019050919050565b600081519050919050565b600081519050919050565b600081519050919050565b6000602082019050919050565b6000602082019050919050565b600082825260208201905092915050565b600082825260208201905092915050565b600082825260208201905092915050565b600082825260208201905092915050565b60006114a68261150d565b91506114b18361150d565b9250828210156114c4576114c36115d4565b5b828203905092915050565b60006114da826114ed565b9050919050565b60008115159050919050565b600073ffffffffffffffffffffffffffffffffffffffff82169050919050565b6000819050919050565b82818337600083830152505050565b60005b83811015611544578082015181840152602081019050611529565b83811115611553576000848401525b50505050565b6000600282049050600182168061157157607f821691505b6020821081141561158557611584611603565b5b50919050565b60006115968261150d565b91507fffffffffffffffffffffffffffffffffffffffffffffffffffffffffffffffff8214156115c9576115c86115d4565b5b600182019050919050565b7f4e487b7100000000000000000000000000000000000000000000000000000000600052601160045260246000fd5b7f4e487b7100000000000000000000000000000000000000000000000000000000600052602260045260246000fd5b7f4e487b7100000000000000000000000000000000000000000000000000000000600052604160045260246000fd5b6000601f19601f8301169050919050565b61167b8161150d565b811461168657600080fd5b5056fea2646970667358221220473f901dd555b7cc30b4a2ae4c2ffe60fd7d1b5f25ae2e88708a49c02f601ffc64736f6c63430008000033",
  "immutableReferences": {},
  "source": "// SPDX-License-Identifier: MIT\r\npragma solidity ^0.8.0;\r\n\r\ncontract VotingSystem {\r\n    address public owner;\r\n\r\n    struct Candidate {\r\n        string name;\r\n        uint voteCount;\r\n    }\r\n\r\n    struct Election {\r\n        string name;\r\n        Candidate[] candidates;\r\n        mapping(address => bool) hasVoted;\r\n        bool isActive;\r\n    }\r\n\r\n    Election[] public elections;\r\n    uint public electionCount;\r\n\r\n    modifier onlyOwner() {\r\n        require(msg.sender == owner, \"Not authorized\");\r\n        _;\r\n    }\r\n\r\n    modifier onlyValidElection(uint _electionId) {\r\n        require(_electionId < elections.length, \"Invalid election ID\");\r\n        _;\r\n    }\r\n\r\n    modifier onlyActiveElection(uint _electionId) {\r\n        require(elections[_electionId].isActive, \"Election is not active\");\r\n        _;\r\n    }\r\n\r\n    modifier onlyAfterElection(uint _electionId) {\r\n        require(!elections[_electionId].isActive, \"Election is still active\");\r\n        _;\r\n    }\r\n\r\n    constructor() {\r\n        owner = msg.sender;\r\n    }\r\n\r\n    // Create a new election\r\n    function createElection(string memory _name, string[] memory _candidates) public onlyOwner returns (uint) {\r\n        Election storage newElection = elections.push();\r\n        newElection.name = _name;\r\n        newElection.isActive = true;\r\n\r\n        for (uint i = 0; i < _candidates.length; i++) {\r\n            newElection.candidates.push(Candidate({ name: _candidates[i], voteCount: 0 }));\r\n        }\r\n\r\n        electionCount++; // Increment election count\r\n        return electionCount - 1; // Return the new election ID\r\n    }\r\n\r\n    // Cast a vote\r\n    function vote(uint _electionId, uint _candidateId)\r\n        public\r\n        onlyValidElection(_electionId)\r\n        onlyActiveElection(_electionId)\r\n    {\r\n        Election storage election = elections[_electionId];\r\n        require(!election.hasVoted[msg.sender], \"You have already voted\");\r\n        require(_candidateId < election.candidates.length, \"Invalid candidate ID\");\r\n\r\n        election.candidates[_candidateId].voteCount++;\r\n        election.hasVoted[msg.sender] = true;\r\n    }\r\n\r\n    // Get results of an election\r\n    function getResults(uint _electionId)\r\n        public\r\n        view\r\n        onlyValidElection(_electionId)\r\n        onlyAfterElection(_electionId)\r\n        returns (string[] memory, uint[] memory)\r\n    {\r\n        Election storage election = elections[_electionId];\r\n        uint candidateCount = election.candidates.length;\r\n\r\n        string[] memory names = new string[](candidateCount);\r\n        uint[] memory votes = new uint[](candidateCount);\r\n\r\n        for (uint i = 0; i < candidateCount; i++) {\r\n            names[i] = election.candidates[i].name;\r\n            votes[i] = election.candidates[i].voteCount;\r\n        }\r\n\r\n        return (names, votes);\r\n    }\r\n\r\n    // Close an election\r\n    function closeElection(uint _electionId) public onlyOwner onlyValidElection(_electionId) {\r\n        elections[_electionId].isActive = false;\r\n    }\r\n}\r\n",
  "sourcePath": "C:\\Coding\\Blockchain\\Votify\\blockchain\\contracts\\VotingSystem.sol",
  "compiler": {
    "name": "solc",
    "version": "0.8.0+commit.c7dfd78e.Emscripten.clang"
  },
  "schemaVersion": "3.4.16",
  "updatedAt": "2025-03-02T12:50:55.603Z",
  "networkType": "ethereum",
  "devdoc": {
    "kind": "dev",
    "methods": {},
    "version": 1
  },
  "userdoc": {
    "kind": "user",
    "methods": {},
    "version": 1
  }
}